:100000000C9464000C946A050C9497050C948C0075
:100010000C948C000C948C000C948C000C948C0030
:100020000C948C000C948C000C948C000C948C0020
:100030000C948C000C9423050C948C000C948C0074
:100040000C9485060C948C000C942B0A0C945D0A7D
:100050000C948C000C948C000C948C000C948C00F0
:100060000C948C000C948C0000000008000201002D
:100070000003040700000000000000000102040863
:100080001020408001020408102001020408102002
:10009000040404040404040402020202020203032E
:1000A00003030303000000002300260029000000D2
:1000B0000000250028002B0000000000240027007D
:1000C0002A00ED018D0A170211241FBECFEFD8E0E0
:1000D000DEBFCDBF12E0A0E0B1E0E6E0F1E202C099
:1000E00005900D92A033B107D9F723E0A0E3B2E069
:1000F00001C01D92A431B207E1F710E0C6ECD0E0D8
:1001000004C02297FE010E94B50DC23CD107C9F779
:100110000E94160C0C9476100C94000081E08093E1
:100120003602109238021092370260E08AE00C9496
:100130002606809136028823F9F02091370230910B
:1001400038028091080190910901281739075CF065
:1001500061E08AE00E94260610923802109237026F
:1001600010923602089580913702909138020196DC
:100170009093380280933702089589E392E00E94B9
:1001800048088FE392E00E94480885E492E00E94CC
:1001900048088BE492E00E94480881E592E00E94C2
:1001A000480887E592E00E9448088DE592E00C94AB
:1001B000480826E040E052EC61E070E083E792E01E
:1001C0000E94B30B6FE071E083E792E00E94E007CA
:1001D00061E088E00E94ED0561E089E00E94ED05A4
:1001E00061E08AE00E94ED0560E08EE00E94ED058E
:1001F00060E08FE00E94ED0541E050E06EE870E0C5
:1002000080E00E944A0580910A0190910B0120E153
:100210002093810010928000AA2797FDA095BA2F05
:1002200033E0880F991FAA1FBB1F3A95D1F700979B
:1002300021E0A207B10520F421E02093630242C02F
:10024000009728E0A207B10558F422E0209363024A
:1002500023E0B695A795979587952A95D1F732C053
:10026000009720E4A207B10558F423E0209363022D
:10027000F6E0B695A79597958795FA95D1F722C0A0
:100280000097A10521E0B20740F424E02093630227
:10029000892F9A2FAB2FBB2715C00097A10524E00B
:1002A000B20758F425E0209363027AE0B695A7954B
:1002B000979587957A95D1F705C085E0809363027D
:1002C0008FEF9FEF909365028093640280916402A8
:1002D00090916502909387008093860080916302DD
:1002E00080618093810080910A0190910B01AA277F
:1002F00097FDA095BA2F0097A105B10509F463C039
:1003000063E0880F991FAA1FBB1F6A95D1F700975A
:1003100021E0A207B10520F421E02093630242C04E
:10032000009728E0A207B10558F422E02093630269
:1003300053E0B695A795979587955A95D1F732C012
:10034000009720E4A207B10558F423E0209363024C
:1003500046E0B695A795979587954A95D1F722C01F
:100360000097A10521E0B20740F424E02093630246
:10037000892F9A2FAB2FBB2715C00097A10524E02A
:10038000B20758F425E0209363022AE0B695A795BA
:10039000979587952A95D1F705C085E080936302EC
:1003A0008FEF9FEF909365028093640280916402C7
:1003B00090916502909387008093860080916302FC
:1003C00080618093810089E990E090930D01809392
:1003D0000C0181E080936F00089561E172E08DE58A
:1003E00092E00E94B60861E172E087E592E00E9427
:1003F000B60861E172E081E592E00E94B60861E131
:1004000072E08BE492E00E94B60861E172E085E45C
:1004100092E00E94B60861E172E08FE392E00E94F0
:10042000B60861E172E089E392E00C94B6080C949E
:10043000BD001F93CF93DF93CDB7DEB72C970FB6D8
:10044000F894DEBF0FBECDBF80E10E9461078A3CF9
:100450009F4FA4F080E10E94610767E370E00E9473
:100460004A0D882777FD8095982F0E94BE0C20E0CA
:1004700030E040E05FE30E94270C13C080E10E945F
:10048000610767E370E00E944A0D882777FD809539
:10049000982F0E94BE0C20E030E040E05FE30E9415
:1004A000260C0E948B0C4AE0469F9001479F300D1E
:1004B0001124309333022093320220913202309182
:1004C00033028091340290913502820F931F9093F2
:1004D00035028093340280910601909107010196C4
:1004E0009093070180930601809106019091070186
:1004F000843691050CF471C08091340290913502DC
:100500008D399F4FE4F0809134029091350264E67A
:1005100070E00E944A0DCB012AE0289FB001299F7C
:10052000700D1124882777FD8095982F0E94BE0CAE
:1005300020E030E040E05FE30E94270C1BC0809188
:1005400034029091350264E670E00E944A0DCB01BE
:100550002AE0289FB001299F700D1124882777FD7C
:100560008095982F0E94BE0C20E030E040E05FE3D1
:100570000E94260C0E948B0C2AE030E040E050E004
:100580000E94800D30933502209334026091340232
:10059000709135024AE0CE0107960E94FB086EE199
:1005A00071E0CE0101960E94B608BE01695F7F4FDF
:1005B000CE0101960E946609BC018FE392E00E9481
:1005C000CC08CE0101960E944808CE0107960E94F1
:1005D0004808109207011092060169E372E08FE368
:1005E00092E00E94A90981110AC06FE372E089E3D9
:1005F00092E00E94CC0881E08093300202C0109209
:10060000300283E792E00E94D00A181619060CF017
:10061000A9C04AE063E772E0CE0101960E9420087B
:10062000BE016F5F7F4F8DE592E00E94CC08CE0146
:1006300001960E9448086DE572E083E792E00E940F
:10064000CE0727E030E040E050E06DE572E0CE01FB
:1006500001960E94DB096EE171E0CE0101960E94D5
:10066000BC09182FCE0101960E944808112331F0D1
:100670006DE572E08BE492E00E94CC0821E230E06C
:1006800040E050E06DE572E0CE0101960E94DB098A
:1006900066E271E0CE0101960E94BC09182FCE01DE
:1006A00001960E944808112331F06DE572E081E562
:1006B00092E00E94CC0821E230E040E050E06DE59D
:1006C00072E0CE0101960E94DB0968E471E0CE0180
:1006D00001960E94BC09182FCE0101960E9448087D
:1006E000112331F06DE572E081E592E00E94CC08C3
:1006F00021E230E040E050E06DE572E0CE0101968D
:100700000E94DB096AE671E0CE0101960E94BC09F5
:10071000182FCE0101960E944808112331F06DE593
:1007200072E087E592E00E94CC0821E230E040E0F0
:1007300050E06DE572E0CE0101960E94DB096CE8A5
:1007400071E0CE0101960E94BC09182FCE010196DE
:100750000E944808112331F06DE572E087E592E0D0
:100760000E94CC0865E472E08BE492E00E94A90943
:1007700081110AC06BE472E085E492E00E94CC082B
:1007800081E08093310202C01092310221E230E018
:1007900040E050E061E572E0CE0107960E94DB097F
:1007A00066E271E0CE0107960E94BC09811113C078
:1007B00021E230E040E050E061E572E0CE010196D8
:1007C0000E94DB0966E271E0CE0101960E94BC093D
:1007D00081110EC007C08FE00E945C06892B41F793
:1007E00011E00BC08FE00E945C0611E0892B09F438
:1007F00010E0CE0101960E944808CE0107960E94A3
:10080000480889E0112361F00E945C06019731F4E9
:100810006EEA71E083E792E00E94E00760E00BC0BF
:100820000E945C06892B31F46EEB71E083E792E065
:100830000E94E00761E089E00E94260621E230E0A4
:1008400040E050E067E572E0CE0107960E94DB09C8
:100850006AE671E0CE0107960E94BC09811113C0BF
:1008600021E230E040E050E067E572E0CE01019621
:100870000E94DB096AE671E0CE0101960E94BC0984
:1008800081110EC007C08EE00E945C06892B41F7E3
:1008900011E00BC08EE00E945C0611E0892B09F488
:1008A00010E0CE0101960E944808CE0107960E94F2
:1008B000480888E0112361F00E945C06019731F43A
:1008C0006DEC71E083E792E00E94E00760E00BC00E
:1008D0000E945C06892B31F46DED71E083E792E0B4
:1008E0000E94E00761E088E00E94260627E030E0F1
:1008F00040E050E065E472E0CE0101960E94DB0921
:100900006EE171E0CE0101960E94BC09882319F0C6
:100910001091310201C010E0CE0101960E944808FA
:100920001123A9F129E030E047E050E065E472E0EE
:10093000CE0101960E94DB09CE0101960E94200A99
:1009400023E730E0261B370B309309012093080181
:10095000CE0101960E94480865E070E080E090E0DA
:100960000E94FE066CEE71E0CE0101960E94B60870
:1009700065E472E0CE0101960E946609BC0183E73E
:1009800092E00E94CE07CE0101960E94480827E01F
:1009900030E040E050E069E372E0CE0101960E9451
:1009A000DB096EE171E0CE0101960E94BC0988234B
:1009B00019F01091300201C010E0CE0101960E94A2
:1009C00048081123A9F129E030E047E050E069E34D
:1009D00072E0CE0101960E94DB09CE0101960E94D1
:1009E000200A23E730E0261B370B309309012093C0
:1009F0000801CE0101960E94480865E070E080E0A1
:100A000090E00E94FE066BEF71E0CE0101960E941D
:100A1000B60869E372E0CE0101960E946609BC0146
:100A200083E792E00E94CE07CE0101960E9448081B
:100A30002C960FB6F894DEBF0FBECDBFDF91CF91DD
:100A40001F91089508951F920F920FB60F921124CF
:100A50002F933F934F935F936F937F938F939F93C6
:100A6000AF93BF93EF93FF93E0910C01F0910D01D1
:100A70000995FF91EF91BF91AF919F918F917F91D8
:100A80006F915F914F913F912F910F900FBE0F90FB
:100A90001F9018958230E8F4E82FF0E0EE0FFF1F6A
:100AA000EA59FD4F71836083813041F08091690084
:100AB0008C7F842B80936900E89A08958091690067
:100AC000440F551F440F551F837F842B809369006B
:100AD000E99A08951F920F920FB60F9211242F9347
:100AE0003F934F935F936F937F938F939F93AF93B6
:100AF000BF93EF93FF938091660290916702892BD9
:100B000029F0E0916602F09167020995FF91EF915B
:100B1000BF91AF919F918F917F916F915F914F9115
:100B20003F912F910F900FBE0F901F9018951F921D
:100B30000F920FB60F9211242F933F934F935F9311
:100B40006F937F938F939F93AF93BF93EF93FF9395
:100B50008091680290916902892B29F0E0916802E6
:100B6000F09169020995FF91EF91BF91AF919F912B
:100B70008F917F916F915F914F913F912F910F9046
:100B80000FBE0F901F901895833081F028F48130AC
:100B900099F08230A1F008958730A9F08830B9F03B
:100BA0008430D1F4809180008F7D03C080918000DB
:100BB0008F7780938000089584B58F7702C084B5C5
:100BC0008F7D84BD08958091B0008F7703C08091A0
:100BD000B0008F7D8093B0000895CF93DF9390E0B5
:100BE000FC01E458FF4F2491FC01E057FF4F849132
:100BF000882349F190E0880F991FFC01E854FF4FCA
:100C0000A591B49182559F4FFC01C591D4919FB796
:100C1000611108C0F8948C91209582238C9388816F
:100C200082230AC0623051F4F8948C91322F3095AF
:100C300083238C938881822B888304C0F8948C91C1
:100C4000822B8C939FBFDF91CF9108950F931F93B9
:100C5000CF93DF931F92CDB7DEB7282F30E0F90195
:100C6000E859FF4F8491F901E458FF4F1491F901BD
:100C7000E057FF4F04910023C9F0882321F06983D6
:100C80000E94C4056981E02FF0E0EE0FFF1FE255DE
:100C9000FF4FA591B4919FB7F8948C91611103C057
:100CA0001095812301C0812B8C939FBF0F90DF9102
:100CB000CF911F910F910895CF93DF93282F30E0AC
:100CC000F901E859FF4F8491F901E458FF4FD4919D
:100CD000F901E057FF4FC491CC2391F081110E949C
:100CE000C405EC2FF0E0EE0FFF1FEC55FF4FA59170
:100CF000B4912C912D2381E090E021F480E002C09A
:100D000080E090E0DF91CF9108951F920F920FB68F
:100D10000F9211242F933F938F939F93AF93BF9381
:100D200080916B0290916C02A0916D02B0916E0265
:100D300030916A0223E0230F2D3720F40196A11D84
:100D4000B11D05C026E8230F0296A11DB11D2093F9
:100D50006A0280936B0290936C02A0936D02B09331
:100D60006E0280916F0290917002A0917102B09119
:100D700072020196A11DB11D80936F0290937002C3
:100D8000A0937102B0937202BF91AF919F918F9126
:100D90003F912F910F900FBE0F901F9018952FB776
:100DA000F89460916B0270916C0280916D02909149
:100DB0006E022FBF08953FB7F89480916F02909113
:100DC0007002A0917102B091720226B5A89B05C075
:100DD0002F3F19F00196A11DB11D3FBF6627782F47
:100DE000892F9A2F620F711D811D911D42E0660FA0
:100DF000771F881F991F4A95D1F70895CF92DF92E8
:100E0000EF92FF92CF93DF936B017C010E94DB0690
:100E1000EB01C114D104E104F10489F00E94250C16
:100E20000E94DB066C1B7D0B683E734090F381E0F3
:100E3000C81AD108E108F108C851DC4FEACFDF91A8
:100E4000CF91FF90EF90DF90CF900895789484B584
:100E5000826084BD84B5816084BD85B5826085BDB6
:100E600085B5816085BDEEE6F0E08081816080839C
:100E7000E1E8F0E01082808182608083808181607F
:100E80008083E0E8F0E0808181608083E1EBF0E046
:100E9000808184608083E0EBF0E0808181608083EA
:100EA000EAE7F0E0808184608083808182608083D3
:100EB0008081816080838081806880831092C100FE
:100EC00008958E3008F08E50877020910E0190E4C6
:100ED000299F90011124822B80937C0080917A00BD
:100EE000806480937A0080917A0086FDFCCF8091A7
:100EF00078002091790090E0922B0895CF92DF92B4
:100F0000EF92FF920F931F93CF93DF936C017A01BF
:100F1000EB01E60EF71E00E010E0CE15DF0561F0F4
:100F20006991D601ED91FC910190F081E02DC6010F
:100F30000995080F191FF1CFC801DF91CF911F91BB
:100F40000F91FF90EF90DF90CF900895611571059C
:100F500081F0DB010D900020E9F7AD01415051090E
:100F6000461B570BDC01ED91FC910280F381E02DD3
:100F7000099480E090E00895DC01ED91FC91DB01A3
:100F800014964D915C9115976D917C910280F3813F
:100F9000E02D09946FE072E00C94A6070F931F9365
:100FA000CF93DF93EC010E94BC078C01CE010E941D
:100FB000CA07800F911FDF91CF911F910F91089564
:100FC0000F931F93CF93DF93EC010E94A6078C0130
:100FD000CE010E94CA07800F911FDF91CF911F9110
:100FE0000F9108950F931F93CF93DF93EC010E940D
:100FF000CF06688779878A879B87E881F981068091
:10100000F781E02DCE01099597FF15C00E94CF060C
:10101000088519852A853B85601B710B820B930B14
:101020000C811D812E813F81601771078207930714
:1010300020F38FEF9FEFDF91CF911F910F910895D4
:10104000EF92FF920F931F93CF93DF93EC018B01ED
:10105000E42E61E172E00E94B608C8010E94F20726
:10106000FF24E7FCF09497FD0BC08E159F0541F01F
:10107000682FCE010E945309C8010E94F207F3CFE6
:10108000CE01DF91CF911F910F91FF90EF900895C6
:10109000FC01808191810C94510ECF93DF93EC0180
:1010A00088819981009711F00E94510E198218824F
:1010B0001D821C821B821A82DF91CF9108950F93AB
:1010C0001F93CF93DF93EC018B016F5F7F4F88817C
:1010D00099810E94E00E009731F0998388831B83E9
:1010E0000A8381E001C080E0DF91CF911F910F91D1
:1010F0000895CF93DF93EC0188819981892B29F0A2
:101100008A819B818617970760F4CE010E945F0851
:10111000882341F08C819D81892B19F4E881F98124
:10112000108281E0DF91CF910895EF92FF920F93AB
:101130001F93CF93DF93EC017B018A01BA010E94D8
:101140007908811104C0CE010E944D0807C01D839B
:101150000C83B701888199810E94E30FCE01DF9152
:10116000CF911F910F91FF90EF900895FC01118294
:10117000108213821282158214826115710559F052
:10118000FB0101900020E9F7AF0141505109461BD6
:10119000570B0C9495080895CF93DF93EC01FB0156
:1011A0008617970761F0608171816115710529F0DB
:1011B000448155810E94950802C00E944D08CE01CD
:1011C000DF91CF910895CF93DF93EC016115710505
:1011D00061F0FB0101900020E9F7AF014150510996
:1011E000461B570B0E94950802C00E944D08CE0175
:1011F000DF91CF9108950F931F93CF93DF93CDB7D6
:10120000DEB762970FB6F894DEBF0FBECDBF8C017C
:10121000CB01F8011182108213821282158214828E
:1012200050E0BE016F5F7F4F0E94EA0FBE016F5F0B
:101230007F4FC8010E94E30862960FB6F894DEBFA4
:101240000FBECDBFDF91CF911F910F910895EF9207
:10125000FF920F931F93CF93DF93EC017B010C81DF
:101260001D816115710511F480E016C0411551050D
:1012700091F0040F151FB8010E9479088823A1F38B
:10128000288139818C819D81B701820F931F0E9433
:10129000E30F1D830C8381E0DF91CF911F910F91AC
:1012A000FF90EF900895CF93DF9300D0CDB7DEB7D6
:1012B00069831A8241E050E0BE016F5F7F4F0E9458
:1012C00027090F900F90DF91CF910895CF93DF936F
:1012D000EC01FB0144815581608171810E942709E5
:1012E000811103C0CE010E944D08CE01DF91CF9144
:1012F0000895CF93DF93DC01ED91FC91EB01A88180
:10130000B981309711F01097C9F4109759F0EB019B
:101310002C813D81232B31F08C9190E0919581952A
:10132000910914C0309781F0DC0114968D919C9145
:101330001597892B49F0808190E008C0BD01CF014D
:10134000DF91CF910C94DA0F80E090E0DF91CF91A4
:101350000895FC0144815581FB01248135814217A8
:10136000530741F40E94790921E0892B09F020E01C
:10137000822F089580E00895FC0124813581232B7C
:1013800031F421E061157105A1F0FB0108C0FC01F9
:10139000808191816115710531F421E0FC0180812A
:1013A000882339F005C00E94DA0F21E0892B09F06B
:1013B00020E0822F0895BF92CF92DF92EF92FF92AA
:1013C0000F931F93CF93DF936C017B01EA01890197
:1013D0002417350720F48D2FE901042F182F61E120
:1013E00072E0C6010E94B608D70114968D919C91B7
:1013F0001597C817D907C8F48017910708F48C010E
:10140000D701ED91FC911197E00FF11FB080108290
:101410006D917C916C0F7D1FC6010E94E308D7017E
:10142000ED91FC91E00FF11FB082C601DF91CF91E9
:101430001F910F91FF90EF90DF90CF90BF90089594
:10144000FC0180819181009711F00C94AA0F60E05B
:1014500070E0CB0108951F920F920FB60F921124E6
:101460002F938F939F93EF93FF93E0918302F091DB
:1014700084028081E0918902F0918A0282FD12C08B
:10148000908180918C028F5F8F7320918D028217E3
:1014900051F0E0918C02F0E0ED58FD4F958F809374
:1014A0008C0201C08081FF91EF919F918F912F91CC
:1014B0000F900FBE0F901F9018951F920F920FB6AE
:1014C0000F9211242F933F934F935F936F937F93CA
:1014D0008F939F93AF93BF93EF93FF9383E792E034
:1014E0000E940B0BFF91EF91BF91AF919F918F9154
:1014F0007F916F915F914F913F912F910F900FBE10
:101500000F901F90189583E792E00E94D00A21E087
:10151000892B09F420E0822F089510927602109210
:10152000750288EE93E0A0E0B0E08093770290939C
:101530007802A0937902B0937A0284E292E09093C9
:1015400074028093730285EC90E090938002809304
:101550007F0284EC90E0909382028093810280EC81
:1015600090E0909384028093830281EC90E09093CA
:1015700086028093850282EC90E0909388028093AB
:10158000870286EC90E090938A0280938902109201
:101590008C0210928D0210928E0210928F0208958A
:1015A000FC01818D228D90E0805C9F4F821B910910
:1015B0008F7399270895FC01918D828D981731F0D2
:1015C000828DE80FF11D858D90E008958FEF9FEFDC
:1015D0000895FC01918D828D981761F0828DDF0155
:1015E000A80FB11D5D968C91928D9F5F9F73928F16
:1015F00090E008958FEF9FEF089583E89AE0892B9C
:1016000049F080E090E0892B29F00E94830A811143
:101610000C9400000895FC01848DDF01A80FB11D1A
:10162000A35ABF4F2C91848D90E001968F73992718
:10163000848FA689B7892C93A089B1898C91806405
:101640008C93938D848D981306C00288F389E02DC6
:1016500080818F7D80830895CF93DF93EC01888D07
:101660008823C9F0EA89FB89808185FD05C0A889A6
:10167000B9898C9186FD0FC00FB607FCF5CF80812C
:1016800085FFF2CFA889B9898C9185FFEDCFCE0176
:101690000E940B0BE7CFDF91CF910895CF92DF929D
:1016A000FF920F931F93CF93DF931F92CDB7DEB7B7
:1016B0006C0181E0D60158968C9358975B969C916B
:1016C0005B975C968C915C97981307C05096ED9150
:1016D000FC915197808185FD2EC0F601038D10E0AD
:1016E0000F5F1F4F0F731127F02EF601848DF81234
:1016F00011C00FB607FCF9CFD6015096ED91FC91C1
:101700005197808185FFF1CFC60169830E940B0B41
:101710006981EBCF838DE80FF11DE35AFF4F6083A2
:10172000D6015B960C935B975296ED91FC91539783
:10173000808180620CC0D6015696ED91FC9157973E
:1017400060835096ED91FC915197808180648083F5
:1017500081E090E00F90DF91CF911F910F91FF906A
:10176000DF90CF900895BF92CF92DF92EF92FF92D9
:10177000CF93DF93EC016A017B01B22EE889F989EE
:1017800082E08083411581EE580761057105A1F063
:1017900060E079E08DE390E0A70196010E945E0D84
:1017A000215031094109510956954795379527959B
:1017B000211580E1380798F0E889F989108260E8FE
:1017C00074E88EE190E0A70196010E945E0D215021
:1017D0003109410951095695479537952795EC856B
:1017E000FD853083EE85FF852083188EEC89FD8989
:1017F000B082EA89FB89808180618083EA89FB89E4
:10180000808188608083EA89FB8980818068808309
:10181000EA89FB8980818F7D8083DF91CF91FF9062
:10182000EF90DF90CF90BF90089508950E94260713
:101830000E94150C0E94D900CDEFDAE00E94190237
:101840002097E1F30E94FD0AF9CF08955058BB2775
:10185000AA270ED0E5C0D6D030F0DBD020F031F48E
:101860009F3F11F41EF4CBC00EF4E095E7FBC1C01E
:10187000E92FE7D080F3BA1762077307840795074B
:1018800018F071F49EF5FFC00EF4E0950B2EBA2F00
:10189000A02D0B01B90190010C01CA01A001112476
:1018A000FF27591B99F0593F50F4503E68F11A1622
:1018B000F040A22F232F342F4427585FF3CF4695B3
:1018C00037952795A795F0405395C9F77EF41F16D5
:1018D000BA0B620B730B840BBAF09150A1F0FF0F9F
:1018E000BB1F661F771F881FC2F70EC0BA0F621F8B
:1018F000731F841F48F4879577956795B795F7957B
:101900009E3F08F0B3CF9395880F08F09927EE0F0C
:1019100097958795089504D06894B111B5C008953E
:1019200098D088F09F5790F0B92F9927B751A0F021
:10193000D1F0660F771F881F991F1AF0BA95C9F763
:1019400012C0B13081F09FD0B1E008959CC0672FE4
:10195000782F8827B85F39F0B93FCCF38695779513
:101960006795B395D9F73EF49095809570956195FC
:101970007F4F8F4F9F4F0895E89409C097FB3EF427
:1019800090958095709561957F4F8F4F9F4F9923CC
:10199000A9F0F92F96E9BB279395F695879577954A
:1019A0006795B795F111F8CFFAF4BB0F11F460FF0A
:1019B0001BC06F5F7F4F8F4F9F4F16C0882311F062
:1019C00096E911C0772321F09EE8872F762F05C076
:1019D000662371F096E8862F70E060E02AF09A9511
:1019E000660F771F881FDAF7880F9695879597F906
:1019F000089597F99F6780E870E060E008959FEF91
:101A000080EC089500240A94161617061806090695
:101A1000089500240A941216130614060506089564
:101A2000092E0394000C11F4882352F0BB0F40F4EC
:101A3000BF2B11F460FF04C06F5F7F4F8F4F9F4F2C
:101A4000089557FD9058440F551F59F05F3F71F0AE
:101A50004795880F97FB991F61F09F3F79F0879515
:101A60000895121613061406551FF2CF4695F1DF9E
:101A700008C0161617061806991FF1CF869571052E
:101A8000610508940895E894BB2766277727CB0162
:101A900097F9089597FB072E16F4009407D077FD69
:101AA00009D00E949F0D07FC05D03EF490958195CA
:101AB0009F4F0895709561957F4F0895A1E21A2E6A
:101AC000AA1BBB1BFD010DC0AA1FBB1FEE1FFF1FE2
:101AD000A217B307E407F50720F0A21BB30BE40B32
:101AE000F50B661F771F881F991F1A9469F7609579
:101AF0007095809590959B01AC01BD01CF01089533
:101B0000052E97FB1EF400940E94970D57FD07D0F9
:101B10000E945E0D07FC03D04EF40C94970D509577
:101B20004095309521953F4F4F4F5F4F08959095C9
:101B30008095709561957F4F8F4F9F4F0895AA1B99
:101B4000BB1B51E107C0AA1FBB1FA617B70710F0A8
:101B5000A61BB70B881F991F5A95A9F780959095DA
:101B6000BC01CD010895EE0FFF1F0590F491E02D0B
:101B70000994CF93DF938230910510F482E090E0D6
:101B8000E0911203F091130320E030E0A0E0B0E018
:101B9000309739F14081518148175907B8F04817FB
:101BA000590771F482819381109729F013969C93C1
:101BB0008E9312972CC0909313038093120327C027
:101BC0002115310531F04217530718F0A901DB0147
:101BD00001C0EF019A01BD01DF010280F381E02D18
:101BE000D7CF21153105F9F0281B390B24303105E9
:101BF00080F48A819B816115710521F0FB0193833B
:101C0000828304C09093130380931203FE013296E3
:101C100044C0FE01E20FF31F8193919322503109DA
:101C2000398328833AC02091100330911103232B6C
:101C300041F420910201309103013093110320936C
:101C4000100320910001309101012115310541F46B
:101C50002DB73EB74091040150910501241B350B6F
:101C6000E0911003F0911103E217F307A0F42E1B8B
:101C70003F0B2817390778F0AC014E5F5F4F2417F0
:101C8000350748F04E0F5F1F509311034093100328
:101C90008193919302C0E0E0F0E0CF01DF91CF911A
:101CA0000895CF93DF93009709F487C0FC01329722
:101CB00013821282C0911203D0911303209781F4F2
:101CC00020813181280F391F8091100390911103D9
:101CD0008217930779F5F0931103E09310036DC019
:101CE000DE0120E030E0AE17BF0750F412964D91B0
:101CF0005C9113979D014115510509F1DA01F3CF6C
:101D0000B383A28340815181840F951F8A179B075B
:101D100071F48D919C911197840F951F0296918378
:101D2000808312968D919C911397938382832115C2
:101D3000310529F4F0931303E09312033EC0D90157
:101D40001396FC93EE9312974D915D91A40FB51FDE
:101D5000EA17FB0779F480819181840F951F029621
:101D6000D90111969C938E938281938113969C93B3
:101D70008E931297E0E0F0E08A819B81009719F042
:101D8000FE01EC01F9CFCE01029628813981820F44
:101D9000931F20911003309111032817390769F41C
:101DA000309729F4109213031092120302C0138289
:101DB0001282D0931103C0931003DF91CF91089545
:101DC000A0E0B0E0E6EEFEE00C944310EC01CB01A5
:101DD000209719F40E94B90DB8C0FE01E60FF71F55
:101DE0009E0122503109E217F30708F4ACC0D90173
:101DF0000D911C91119706171707B8F005301105C2
:101E000008F49FC0A801445051094617570708F429
:101E100098C002501109061B170B019311936D9383
:101E20007C93CF010E94510E8CC05B01A01AB10AB5
:101E30004E01800E911EA0911203B0911303612CEC
:101E4000712C60E070E0109709F449C0A815B9053D
:101E5000C9F5ED90FC901197670142E0C40ED11CCA
:101E6000CA14DB0478F147018A189B08640142E038
:101E7000C40ED11C1296BC9012971396AC91B5E08B
:101E8000CB16D10440F0B282A38391828082D90123
:101E90008D939C9309C00E5F1F4F0E0D1F1DF901FE
:101EA00011830083EB2DFA2F6115710531F0DB01F1
:101EB0001396FC93EE93129744C0F0931303E093B0
:101EC00012033FC06D917C9111976616770608F456
:101ED0003B01BD0112960D90BC91A02DB4CF609135
:101EE00010037091110368157905E9F468167906F5
:101EF000D0F440910001509101014115510541F488
:101F00004DB75EB76091040170910501461B570BF8
:101F1000E417F507C0F4F0931103E0931003F901FF
:101F2000918380830EC00E94B90D7C01009759F007
:101F3000A801BE010E94D10FCE010E94510EC7011F
:101F400004C0CE0102C080E090E0CDB7DEB7EEE085
:101F50000C945F101F93FC0199278827BC01E8941B
:101F600011911032E9F3193010F01E30C8F31B3212
:101F700051F01D3249F4689406C00E940010610FB0
:101F8000711D811D911D119110531A30B0F33EF453
:101F900090958095709561957F4F8F4F9F4F1F91C2
:101FA0000895FB01DC0102C001900D9241505040A8
:101FB000D8F70895FB01DC018D9101908019011083
:101FC000D9F3990B0895FB01DC0101900D920020DB
:101FD000E1F708954532510520F4423010F00C9499
:101FE000F50FFB011082CB010895BB274A3031F475
:101FF000992322F4BDE2909581959F4F0C94161081
:10200000592F482F372F262F660F771F881F991FAC
:10201000660F771F881F991F620F731F841F951FFC
:10202000660F771F881F991F0895BB27FB0155274F
:10203000AA27880F991FAA1FA41710F0A41B839525
:102040005051B9F7A05DAA3308F0A95DA19300979C
:1020500079F7B111B1931192CB010C942F10DC01DF
:10206000FC01672F71917723E1F7329704C07C91CF
:102070006D9370836291AE17BF07C8F308952F92D6
:102080003F924F925F926F927F928F929F92AF9208
:10209000BF92CF92DF92EF92FF920F931F93CF9355
:1020A000DF93CDB7DEB7CA1BDB0B0FB6F894DEBFEC
:1020B0000FBECDBF09942A88398848885F846E8412
:1020C0007D848C849B84AA84B984C884DF80EE805C
:1020D000FD800C811B81AA81B981CE0FD11D0FB665
:1020E000F894DEBF0FBECDBFED01089510E0C6EC41
:1020F000D0E004C0FE010E94B50D2296C83CD10775
:06210000C9F7F894FFCFBF
:10210600000014038000010073004B0022050157F4
:102116006946692D32412D44696D6D6572004469C9
:102126006D6D65723A00525F322073776974636829
:1021360065642076696120776562207265717565D0
:10214600737420746F203100525F32207377697484
:1021560063686564207669612077656220726571BF
:102166007565737420746F203000525F3120737769
:102176006974636865642076696120776562207298
:1021860065717565737420746F203100525F31205C
:102196007377697463686564207669612077656220
:1021A600207265717565737420746F2030004C6FF2
:1021B60061642074776F206973204F4646004C6F28
:1021C60061642074776F206973204F4E004C6F61F5
:1021D60064206F6E65206973204F4646004C6F6120
:1021E60064206F6E65206973204F4E0055617274CE
:1021F6002076616C756520746F2000526567756C7A
:1022060061746F722076616C756520746F20000DA5
:102216000A006E616E00696E66006F7666002E00BB
:10222600000000004E0B7E07D00AE90ADB0A2C0BE1
:00000001FF
